:020000040800F2
:10000000600600200D020008150200081702000813
:10001000190200081B0200081D0200080000000071
:100020000000000000000000000000001F020008A7
:100030002102000800000000230200082502000839
:1000400027020008270200082702000827020008EC
:1000500027020008270200082702000827020008DC
:1000600027020008270200082702000827020008CC
:1000700027020008270200082702000827020008BC
:1000800027020008270200082702000827020008AC
:10009000270200082702000827020008270200089C
:1000A000270200082702000827020008270200088C
:1000B000270200082702000827020008270200087C
:1000C000270200082702000827020008270200086C
:1000D000270200082702000827020008270200085C
:1000E000270200082702000827020008270200084C
:1000F000270200082702000827020008270200083C
:10010000270200082702000827020008270200082B
:10011000270200082702000827020008270200081B
:10012000270200082702000827020008270200080B
:1001300027020008270200082702000827020008FB
:1001400027020008270200082702000827020008EB
:1001500027020008270200082702000827020008DB
:1001600027020008270200082702000827020008CB
:1001700027020008270200082702000800000000EC
:10018000270200082702000800F002F800F02EF80D
:100190000AA090E8000C82448344AAF10107DA45E2
:1001A00001D100F023F8AFF2090EBAE80F0013F006
:1001B000010F18BFFB1A43F0010318476410000039
:1001C000741000000023002400250026103A28BFE8
:1001D00078C1FBD8520728BF30C148BF0B607047B9
:1001E0001FB500F017FC1FBD10B510BD00F031F8B1
:1001F0001146FFF7F5FF00F083FB00F04FF803B462
:10020000FFF7F2FF03BC00F057F8000009488047F1
:1002100009480047FEE7FEE7FEE7FEE7FEE7FEE7E8
:10022000FEE7FEE7FEE7FEE704480549054A064B00
:100230007047000081080008890100086000002064
:1002400060060020600200206002002070477047B6
:100250007047754600F02CF8AE46050069465346D7
:1002600020F00700854618B020B5FFF7DDFFBDE898
:1002700020404FF000064FF000074FF000084FF00D
:10028000000B21F00701AC46ACE8C009ACE8C0099E
:10029000ACE8C009ACE8C0098D46704710B504460B
:1002A000AFF300802046BDE81040FFF7A8BF000074
:1002B000004870470000002001491820ABBEFEE74F
:1002C00026000200704700004FF0000A4FF00102C4
:1002D000144600492002002001F10C0213684FEA85
:1002E00033231D4603F0FF0300B500F0B5F85DF8B9
:1002F00004EB13712B464FEA332303F0FF0300B5E1
:1003000000F0AAF85DF804EB53712B464FEA334333
:1003100003F0FF0300B500F09FF85DF804EB937164
:100320002B464FEA336303F0FF0300B500F094F867
:100330005DF804EBD371536883EA04030D6883EA24
:1003400005030B614D6883EA05034B618D6883EA01
:1003500005038B61CD6883EA0503CB6101F11001D0
:10036000BAF1000F07D12444802CB5DD4FF01B04F7
:100370000AF1010AB0E7BAF1020F04D04FF03604D7
:100380000AF1010AA8E77047D349D44A00B500F042
:1003900057F85DF804EB4FF0000A00B500F022F8C2
:1003A0005DF804EB0AF1010ABAF1090FF5D1CA4967
:1003B0004FF000028B5C00B500F04EF85DF804EBE6
:1003C0008B5402F10102102AF4D100B500F04CF870
:1003D0005DF804EBC049C24A00B500F031F85DF8A1
:1003E00004EB7047BC494FF000028B5C00B500F095
:1003F00033F85DF804EB8B5402F10102102AF4D1BA
:1004000000B500F031F85DF804EBB3494FF0000C93
:1004100000B500F042F85DF804EB0CF1010C01F1BD
:100420000401BCF1040FF3D1AB49AE4AD1464FEA07
:1004300009194A4400B500F003F85DF804EB704771
:100440004FF00003CC58D55884EA0506CE5003F18E
:100450000403102BF6D17047DFF88C82D8F80070B7
:1004600007EB0306337870474A784B794B704B7A29
:100470004B714B7B4B724A738A788B798C7A8C7078
:100480008C7B8C718A728B73CA7BCB7ACB73CB7962
:10049000CB72CB78CB71CA707047944A1268944B78
:1004A0001B680C78155D4C781E5D85EA06058C7816
:1004B00085EA0405CC7885EA04074C78155D8C78CC
:1004C0001E5D85EA06050C7885EA0405CC7885EA88
:1004D00004088C78155DCC781E5D85EA06050C78DD
:1004E00085EA04054C7885EA0409CC78155D0C781A
:1004F0001E5D85EA06054C7885EA04058C7885EA58
:10050000040B0F7081F8018081F8029081F803B02C
:1005100070477149724A00B5FFF792FF5DF804EB2E
:100520004FF0000A00B500F023F85DF804EB0AF183
:10053000010ABAF1090FF5D1674900B500F054F886
:100540005DF804EB64494FF000028B5C00B500F0ED
:1005500064F85DF804EB8B5402F10102102AF4D127
:100560005D495E4A00B5FFF76BFF5DF804EB70472D
:10057000594900B500F038F85DF804EB56494FF0E2
:1005800000028B5C00B500F048F85DF804EB8B547A
:1005900002F10102102AF4D14F49564AD1464FEADE
:1005A0000919A2EB090200B5FFF74AFF5DF804EB59
:1005B000494900B500F039F85DF804EB01F1040198
:1005C00000B500F032F85DF804EB01F1040100B56C
:1005D00000F02BF85DF804EB01F1040100B500F028
:1005E00024F85DF804EB70474A7B4B7A4B734B79E8
:1005F0004B724B784B714A708A7A8B7B8C798C73F7
:100600008C788C728A708B71CA78CB79CB70CB7AEC
:10061000CB71CB7BCB72CA737047DFF8DC80D8F824
:10062000007007EB030633787047344A1268344B86
:100630001B68344C2468344D2D680E78AF5D4E78BD
:1006400013F8068087EA08078E7814F8068087EA90
:100650000807CE7812F8068087EA08070E7812F8A5
:1006600006804E7815F8069089EA08088E7813F807
:10067000069089EA0808CE7814F8069089EA0808F6
:100680000E7814F806904E7812F806B089EA0B0935
:100690008E7815F806B089EA0B09CE7813F806B003
:1006A00089EA0B090E7813F806B04E7814F806C0E4
:1006B0008BEA0C0B8E7812F806C08BEA0C0BCE7806
:1006C00015F806C08BEA0C0B0F7081F8018081F8D9
:1006D000029081F803B07047000200202002002041
:1006E000C00200203002002016020020000300207B
:1006F00006030020B00200201A0200200C03002094
:1007000012030020180300201E03002050494FF060
:1007100000050D7001F101014FF011050D7001F19F
:1007200001014FF022050D7001F101014FF0330579
:100730000D7001F101014FF044050D7001F101014F
:100740004FF055050D7001F101014FF066050D7078
:1007500001F101014FF077050D7001F101014FF03A
:1007600088050D7001F101014FF099050D7001F13F
:1007700001014FF0AA050D7001F101014FF0BB0519
:100780000D7001F101014FF0CC050D7001F1010177
:100790004FF0DD050D7001F101014FF0EE050D7018
:1007A00001F101014FF0FF050D702A494FF00005DE
:1007B0000D7001F101014FF001050D7001F1010112
:1007C0004FF002050D7001F101014FF003050D70AE
:1007D00001F101014FF004050D7001F101014FF02D
:1007E00005050D7001F101014FF006050D7001F1D5
:1007F00001014FF007050D7001F101014FF00805EF
:100800000D7001F101014FF009050D7001F10101B9
:100810004FF00A050D7001F101014FF00B050D704D
:1008200001F101014FF00C050D7001F101014FF0D4
:100830000D050D7001F101014FF00E050D7001F174
:1008400001014FF00F050D7001F10101704700002B
:1008500000020020200200200021084A1160111F20
:1008600008604914121D116042F20C01121F116040
:100870000021024A08321160704700000C14014048
:100880001448006840F4700012490860124800687B
:1008900040F001001049086000200F49083108604D
:1008A0000D4800680D4908400B4908600C48091DB7
:1008B0000860081F006820F48020091F08600020DD
:1008C00005490C3108604FF000600249803908602A
:1008D0007047000088ED00E000380240FFFFF6FEA0
:1008E0001030002400BF0549096801F0800100298B
:1008F000F9D00249091D086070470000001401404A
:100900002DE9F04F85B037480290364816300190F7
:1009100035480090354E01980660354F31481A3001
:100920000760DFF8D0804FF00050C0F80083DFF898
:10093000C890C0F80693DFF8C4A0C0F80CA3DFF895
:10094000C0B0C0F812B32F4804904FF00051049883
:10095000C1F818032C48039023491E3103980860FE
:10096000FFF7D4FEFFF7B0FCFFF70EFDFFF7D1FD58
:100970002648006840F004002449086023481030ED
:10098000006840F01000214910310860081D00681F
:1009900040F02000091D086048061D4908601C48F9
:1009A0002038006840F42040194920390860184870
:1009B0001838006840F4405015491839086040F272
:1009C0004130FFF749FF002405E00648055D284651
:1009D000FFF788FF641C102CF7DB002005B0BDE892
:1009E000F08F000000020020000300201E0A000813
:1009F0001E0B00081E0C00081E0D00081E0E00082D
:100A00001E0F00081E1000081E110008303802409A
:100A1000200802404FF04070E1EE100A7047637CFE
:100A2000777BF26B6FC53001672BFED7AB76CA823E
:100A3000C97DFA5947F0ADD4A2AF9CA472C0B7FDEE
:100A40009326363FF7CC34A5E5F171D8311504C7AC
:100A500023C31896059A071280E2EB27B275098323
:100A60002C1A1B6E5AA0523BD6B329E32F8453D1C4
:100A700000ED20FCB15B6ACBBE394A4C58CFD0EFB9
:100A8000AAFB434D338545F9027F503C9FA851A3F3
:100A9000408F929D38F5BCB6DA2110FFF3D2CD0C11
:100AA00013EC5F974417C4A77E3D645D19736081A2
:100AB0004FDC222A908846EEB814DE5E0BDBE03273
:100AC0003A0A4906245CC2D3AC629195E479E7C83E
:100AD000376D8DD54EA96C56F4EA657AAE08BA78B2
:100AE000252E1CA6B4C6E8DD741F4BBD8B8A703E54
:100AF000B5664803F60E613557B986C11D9EE1F80B
:100B0000981169D98E949B1E87E9CE5528DF8CA158
:100B1000890DBFE6426841992D0FB054BB165209AA
:100B20006AD53036A538BF40A39E81F3D7FB7CE35E
:100B300039829B2FFF87348E4344C4DEE9CB547B3C
:100B40009432A6C2233DEE4C950B42FAC34E082EBA
:100B5000A16628D924B2765BA2496D8BD12572F8A3
:100B6000F66486689816D4A45CCC5D65B6926C7009
:100B70004850FDEDB9DA5E154657A78D9D8490D893
:100B8000AB008CBCD30AF7E45805B8B34506D02CAB
:100B90001E8FCA3F0F02C1AFBD0301138A6B3A918A
:100BA00011414F67DCEA97F2CFCEF0B4E67396AC12
:100BB0007422E7AD3585E2F937E81C75DF6E47F141
:100BC0001A711D29C5896FB7620EAA18BE1BFC5683
:100BD0003E4BC6D279209ADBC0FE78CD5AF41FDD99
:100BE000A8338807C731B11210592780EC5F6051D4
:100BF0007FA919B54A0D2DE57A9F93C99CEFA0E016
:100C00003B4DAE2AF5B0C8EBBB3C83539961172B23
:100C1000047EBA77D626E169146355210C7D000263
:100C20000406080A0C0E10121416181A1C1E202294
:100C30002426282A2C2E30323436383A3C3E404284
:100C40004446484A4C4E50525456585A5C5E606274
:100C50006466686A6C6E70727476787A7C7E808264
:100C60008486888A8C8E90929496989A9C9EA0A254
:100C7000A4A6A8AAACAEB0B2B4B6B8BABCBEC0C244
:100C8000C4C6C8CACCCED0D2D4D6D8DADCDEE0E234
:100C9000E4E6E8EAECEEF0F2F4F6F8FAFCFE1B19F2
:100CA0001F1D131117150B090F0D030107053B3904
:100CB0003F3D333137352B292F2D232127255B59F4
:100CC0005F5D535157554B494F4D434147457B79E4
:100CD0007F7D737177756B696F6D636167659B99D4
:100CE0009F9D939197958B898F8D83818785BBB9C4
:100CF000BFBDB3B1B7B5ABA9AFADA3A1A7A5DBD9B4
:100D0000DFDDD3D1D7D5CBC9CFCDC3C1C7C5FBF9A3
:100D1000FFFDF3F1F7F5EBE9EFEDE3E1E7E50003C4
:100D200006050C0F0A09181B1E1D1417121130336B
:100D300036353C3F3A39282B2E2D2427222160635B
:100D400066656C6F6A69787B7E7D747772715053CB
:100D500056555C5F5A59484B4E4D44474241C0C3BB
:100D6000C6C5CCCFCAC9D8DBDEDDD4D7D2D1F0F32B
:100D7000F6F5FCFFFAF9E8EBEEEDE4E7E2E1A0A31B
:100D8000A6A5ACAFAAA9B8BBBEBDB4B7B2B190938B
:100D900096959C9F9A99888B8E8D848782819B984B
:100DA0009D9E97949192838085868F8C898AABA82B
:100DB000ADAEA7A4A1A2B3B0B5B6BFBCB9BAFBF89B
:100DC000FDFEF7F4F1F2E3E0E5E6EFECE9EACBC88B
:100DD000CDCEC7C4C1C2D3D0D5D6DFDCD9DA5B58FB
:100DE0005D5E57545152434045464F4C494A6B68EB
:100DF0006D6E67646162737075767F7C797A3B385B
:100E00003D3E37343132232025262F2C292A0B084A
:100E10000D0E07040102131015161F1C191A0009E4
:100E2000121B242D363F48415A536C657E779099AA
:100E3000828BB4BDA6AFD8D1CAC3FCF5EEE73B3276
:100E400029201F160D04737A6168575E454CABA2CA
:100E5000B9B08F869D94E3EAF1F8C7CED5DC767FF2
:100E6000646D525B40493E372C251A130801E6EFAA
:100E7000F4FDC2CBD0D9AEA7BCB58A8398914D44BE
:100E80005F5669607B72050C171E2128333ADDD44A
:100E9000CFC6F9F0EBE2959C878EB1B8A3AAECE53A
:100EA000FEF7C8C1DAD3A4ADB6BF8089929B7C752A
:100EB0006E6758514A43343D262F1019020BD7DE76
:100EC000C5CCF3FAE1E89F968D84BBB2A9A0474E4A
:100ED000555C636A71780F061D142B2239309A9382
:100EE0008881BEB7ACA5D2DBC0C9F6FFE4ED0A032A
:100EF00018112E273C35424B5059666F747DA1A8BE
:100F0000B3BA858C979EE9E0FBF2CDC4DFD63138C9
:100F1000232A151C070E79706B625D544F46000B37
:100F2000161D2C273A3158534E45747F6269B0BB69
:100F3000A6AD9C978A81E8E3FEF5C4CFD2D97B7039
:100F40006D66575C414A2328353E0F041912CBC009
:100F5000DDD6E7ECF1FA9398858EBFB4A9A2F6FD31
:100F6000E0EBDAD1CCC7AEA5B8B38289949F464DE9
:100F7000505B6A617C771E1508033239242F8D86F9
:100F80009B90A1AAB7BCD5DEC3C8F9F2EFE43D3609
:100F90002B20111A070C656E737849425F54F7FCD9
:100FA000E1EADBD0CDC6AFA4B9B28388959E474CA9
:100FB000515A6B607D761F1409023338252E8C87B9
:100FC0009A91A0ABB6BDD4DFC2C9F8F3EEE53C37C9
:100FD0002A21101B060D646F727948435E55010A81
:100FE000171C2D263B3059524F44757E6368B1BAA9
:100FF000A7AC9D968B80E9E2FFF4C5CED3D87A7179
:101000006C67565D404B2229343F0E051813CAC148
:10101000DCD7E6EDF0FB9299848FBEB5A8A3000D56
:101020001A1734392E236865727F5C51464BD0DD28
:10103000CAC7E4E9FEF3B8B5A2AF8C81969BBBB6F4
:10104000A1AC8F829598D3DEC9C4E7EAFDF06B6648
:10105000717C5F524548030E1914373A2D206D609C
:10106000777A5954434E05081F12313C2B26BDB0E8
:10107000A7AA8984939ED5D8CFC2E1ECFBF6D6DB34
:10108000CCC1E2EFF8F5BEB3A4A98A87909D060B08
:101090001C11323F28256E6374795A57404DDAD7B8
:1010A000C0CDEEE3F4F9B2BFA8A5868B9C910A07E8
:1010B000101D3E332429626F7875565B4C41616C7C
:1010C0007B7655584F420904131E3D30272AB1BC88
:1010D000ABA685889F92D9D4C3CEEDE0F7FAB7BA14
:1010E000ADA0838E9994DFD2C5C8EBE6F1FC676AA8
:1010F0007D70535E49440F0215183B36212C0C01BC
:10110000161B3835222F64697E73505D4A47DCD147
:10111000C6CBE8E5F2FFB4B9AEA3808D9A97000E76
:101120001C123836242A707E6C624846545AE0EE0F
:10113000FCF2D8D6C4CA909E8C82A8A6B4BADBD5DD
:10114000C7C9E3EDFFF1ABA5B7B9939D8F813B35DF
:101150002729030D1F114B455759737D6F61ADA3AF
:10116000B1BF959B8987DDD3C1CFE5EBF9F74D433F
:10117000515F757B69673D33212F050B1917767811
:101180006A644E40525C06081A143E30222C96982F
:101190008A84AEA0B2BCE6E8FAF4DED0C2CC414FFD
:1011A0005D537977656B313F2D230907151BA1AF7F
:1011B000BDB39997858BD1DFCDC3E9E7F5FB9A9451
:1011C0008688A2ACBEB0EAE4F6F8D2DCCEC07A746F
:1011D0006668424C5E500A041618323C2E20ECE23F
:1011E000F0FED4DAC8C69C92808EA4AAB8B60C02CF
:1011F000101E343A28267C72606E444A585637399D
:101200002B250F01131D47495B557F71636DD7D99E
:10121000CBC5EFE1F3FDA7A9BBB59F91838D00007E
:10122000301200080000002060060000C401000821
:040000050800020DE0
:00000001FF
