:020000040800F2
:10000000600600200D020008150200081702000813
:10001000190200081B0200081D0200080000000071
:100020000000000000000000000000001F020008A7
:100030002102000800000000230200082502000839
:1000400027020008270200082702000827020008EC
:1000500027020008270200082702000827020008DC
:1000600027020008270200082702000827020008CC
:1000700027020008270200082702000827020008BC
:1000800027020008270200082702000827020008AC
:10009000270200082702000827020008270200089C
:1000A000270200082702000827020008270200088C
:1000B000270200082702000827020008270200087C
:1000C000270200082702000827020008270200086C
:1000D000270200082702000827020008270200085C
:1000E000270200082702000827020008270200084C
:1000F000270200082702000827020008270200083C
:10010000270200082702000827020008270200082B
:10011000270200082702000827020008270200081B
:10012000270200082702000827020008270200080B
:1001300027020008270200082702000827020008FB
:1001400027020008270200082702000827020008EB
:1001500027020008270200082702000827020008DB
:1001600027020008270200082702000827020008CB
:1001700027020008270200082702000800000000EC
:10018000270200082702000800F002F800F02EF80D
:100190000AA090E8000C82448344AAF10107DA45E2
:1001A00001D100F023F8AFF2090EBAE80F0013F006
:1001B000010F18BFFB1A43F001031847440D00005C
:1001C000540D00000023002400250026103A28BF0B
:1001D00078C1FBD8520728BF30C148BF0B607047B9
:1001E0001FB500F007FB1FBD10B510BD00F031F8C2
:1001F0001146FFF7F5FF00F091FA00F04FF803B455
:10020000FFF7F2FF03BC00F057F8000009488047F1
:1002100009480047FEE7FEE7FEE7FEE7FEE7FEE7E8
:10022000FEE7FEE7FEE7FEE704480549054A064B00
:10023000704700009D06000889010008600000204A
:1002400060060020600200206002002070477047B6
:100250007047754600F02CF8AE46050069465346D7
:1002600020F00700854618B020B5FFF7DDFFBDE898
:1002700020404FF000064FF000074FF000084FF00D
:10028000000B21F00701AC46ACE8C009ACE8C0099E
:10029000ACE8C009ACE8C0098D46704710B504460B
:1002A000AFF300802046BDE81040FFF7A8BF000074
:1002B000004870470000002001491820ABBEFEE74F
:1002C00026000200704700004FF0000A4FF00102C4
:1002D00014468E4901F10C0213684FEA33231D4680
:1002E00003F0FF0300B500F0B4F85DF804EB137100
:1002F0002B464FEA332303F0FF0300B500F0A9F8C3
:100300005DF804EB53712B464FEA334303F0FF03D0
:1003100000B500F09EF85DF804EB93712B464FEAB0
:10032000336303F0FF0300B500F093F85DF804EBCE
:10033000D371536883EA04030D6883EA05030B61F4
:100340004D6883EA05034B618D6883EA05038B6181
:10035000CD6883EA0503CB6101F11001BAF1000F0A
:1003600007D12444802CB5DD4FF01B040AF1010AAB
:10037000B0E7BAF1020F04D04FF036040AF1010AD7
:10038000A8E76349614A00B500F057F85DF804EB4F
:100390004FF0000A00B500F022F85DF804EB0AF116
:1003A000010ABAF1090FF5D159494FF000028B5CEF
:1003B00000B500F04EF85DF804EB8B5402F1010239
:1003C000102AF4D100B500F04CF85DF804EB504968
:1003D000504A00B500F031F85DF804EB70474C4925
:1003E0004FF000028B5C00B500F033F85DF804EBD1
:1003F0008B5402F10102102AF4D100B500F031F85B
:100400005DF804EB42494FF0000C00B500F042F8F3
:100410005DF804EB0CF1010C01F10401BCF1040FD7
:10042000F3D13B493C4AD1464FEA09194A4400B549
:1004300000F003F85DF804EB70474FF00003CC5870
:10044000D55884EA0506CE5003F10403102BF6D1EB
:100450007047DFF8C880D8F8007007EB03063378E0
:1004600070474A784B794B704B7A4B714B7B4B7290
:100470004A738A788B798C7A8C708C7B8C718A72B7
:100480008B73CA7BCB7ACB73CB79CB72CB78CB71A6
:10049000CA707047224A1268224B1B680C78155D9F
:1004A0004C781E5D85EA06058C7885EA0405CC78D3
:1004B00085EA04074C78155D8C781E5D85EA060593
:1004C0000C7885EA0405CC7885EA04088C78155DFB
:1004D000CC781E5D85EA06050C7885EA04054C7823
:1004E00085EA0409CC78155D0C781E5D85EA060561
:1004F0004C7885EA04058C7885EA040B0F7081F846
:10050000018081F8029081F803B07047200200203A
:1005100000020020C002002030020020160200204D
:10052000000300200603002050494FF032050D70F3
:1005300001F101014FF043050D7001F101014FF090
:10054000F6050D7001F101014FF0A8050D7001F1E4
:1005500001014FF088050D7001F101014FF05A05BE
:100560000D7001F101014FF030050D7001F1010135
:100570004FF08D050D7001F101014FF031050D7047
:1005800001F101014FF031050D7001F101014FF052
:1005900098050D7001F101014FF0A2050D7001F1F8
:1005A00001014FF0E0050D7001F101014FF0370539
:1005B0000D7001F101014FF007050D7001F101010E
:1005C0004FF034050D702A494FF02B050D7001F1E5
:1005D00001014FF07E050D7001F101014FF015058D
:1005E0000D7001F101014FF016050D7001F10101CF
:1005F0004FF028050D7001F101014FF0AE050D70AF
:1006000001F101014FF0D2050D7001F101014FF030
:10061000A6050D7001F101014FF0AB050D7001F160
:1006200001014FF0F7050D7001F101014FF01505C3
:100630000D7001F101014FF088050D7001F101010C
:100640004FF009050D7001F101014FF0CF050D705C
:1006500001F101014FF04F050D7001F101014FF063
:100660003C050D7001F101017047000000020020FF
:10067000200200200021084A1160111F086049145F
:10068000121D116042F20C01121F11600021024A7A
:1006900008321160704700000C14014014480068D3
:1006A00040F47000124908601248006840F00100F0
:1006B0001049086000200F49083108600D480068A3
:1006C0000D4908400B4908600C48091D0860081FC7
:1006D000006820F48020091F0860002005490C31C3
:1006E00008604FF0006002498039086070470000E0
:1006F00088ED00E000380240FFFFF6FE10300024D5
:1007000000BF0549096801F080010029F9D00249BC
:10071000091D0860704700000014014000BFDFF8A9
:10072000ACB000BF2A4CCBF800402A4D2748EA3035
:100730000560294E4FF00050C0F80663274F23484C
:10074000F6300760DFF898804FF00050C0F8128351
:10075000DFF89090C0F81893DFF88CA0C0F81EA3C3
:10076000FFF7E2FEFFF7B0FDFFF70BFE1F48006842
:1007700040F004001D4908601C481030006840F03B
:1007800010001A4910310860081D006840F0200070
:10079000091D086048061649086015482038006899
:1007A00040F4204012492039086011481838006888
:1007B00040F440500E49183908604FF4D070FFF7EC
:1007C00059FF02E05220FFF79BFFFBE716020020D3
:1007D000FE070008FE080008FE090008FE0A0008DF
:1007E000FE0B0008FE0C0008FE0D00083038024029
:1007F000200802404FF04070E1EE100A7047637C21
:10080000777BF26B6FC53001672BFED7AB76CA8260
:10081000C97DFA5947F0ADD4A2AF9CA472C0B7FD10
:100820009326363FF7CC34A5E5F171D8311504C7CE
:1008300023C31896059A071280E2EB27B275098345
:100840002C1A1B6E5AA0523BD6B329E32F8453D1E6
:1008500000ED20FCB15B6ACBBE394A4C58CFD0EFDB
:10086000AAFB434D338545F9027F503C9FA851A315
:10087000408F929D38F5BCB6DA2110FFF3D2CD0C33
:1008800013EC5F974417C4A77E3D645D19736081C4
:100890004FDC222A908846EEB814DE5E0BDBE03295
:1008A0003A0A4906245CC2D3AC629195E479E7C860
:1008B000376D8DD54EA96C56F4EA657AAE08BA78D4
:1008C000252E1CA6B4C6E8DD741F4BBD8B8A703E76
:1008D000B5664803F60E613557B986C11D9EE1F82D
:1008E000981169D98E949B1E87E9CE5528DF8CA17B
:1008F000890DBFE6426841992D0FB054BB16000226
:100900000406080A0C0E10121416181A1C1E2022B7
:100910002426282A2C2E30323436383A3C3E4042A7
:100920004446484A4C4E50525456585A5C5E606297
:100930006466686A6C6E70727476787A7C7E808287
:100940008486888A8C8E90929496989A9C9EA0A277
:10095000A4A6A8AAACAEB0B2B4B6B8BABCBEC0C267
:10096000C4C6C8CACCCED0D2D4D6D8DADCDEE0E257
:10097000E4E6E8EAECEEF0F2F4F6F8FAFCFE1B1915
:100980001F1D131117150B090F0D030107053B3927
:100990003F3D333137352B292F2D232127255B5917
:1009A0005F5D535157554B494F4D434147457B7907
:1009B0007F7D737177756B696F6D636167659B99F7
:1009C0009F9D939197958B898F8D83818785BBB9E7
:1009D000BFBDB3B1B7B5ABA9AFADA3A1A7A5DBD9D7
:1009E000DFDDD3D1D7D5CBC9CFCDC3C1C7C5FBF9C7
:1009F000FFFDF3F1F7F5EBE9EFEDE3E1E7E50003E8
:100A000006050C0F0A09181B1E1D1417121130338E
:100A100036353C3F3A39282B2E2D2427222160637E
:100A200066656C6F6A69787B7E7D747772715053EE
:100A300056555C5F5A59484B4E4D44474241C0C3DE
:100A4000C6C5CCCFCAC9D8DBDEDDD4D7D2D1F0F34E
:100A5000F6F5FCFFFAF9E8EBEEEDE4E7E2E1A0A33E
:100A6000A6A5ACAFAAA9B8BBBEBDB4B7B2B19093AE
:100A700096959C9F9A99888B8E8D848782819B986E
:100A80009D9E97949192838085868F8C898AABA84E
:100A9000ADAEA7A4A1A2B3B0B5B6BFBCB9BAFBF8BE
:100AA000FDFEF7F4F1F2E3E0E5E6EFECE9EACBC8AE
:100AB000CDCEC7C4C1C2D3D0D5D6DFDCD9DA5B581E
:100AC0005D5E57545152434045464F4C494A6B680E
:100AD0006D6E67646162737075767F7C797A3B387E
:100AE0003D3E37343132232025262F2C292A0B086E
:100AF0000D0E07040102131015161F1C191A000908
:100B0000121B242D363F48415A536C657E779099CD
:100B1000828BB4BDA6AFD8D1CAC3FCF5EEE73B3299
:100B200029201F160D04737A6168575E454CABA2ED
:100B3000B9B08F869D94E3EAF1F8C7CED5DC767F15
:100B4000646D525B40493E372C251A130801E6EFCD
:100B5000F4FDC2CBD0D9AEA7BCB58A8398914D44E1
:100B60005F5669607B72050C171E2128333ADDD46D
:100B7000CFC6F9F0EBE2959C878EB1B8A3AAECE55D
:100B8000FEF7C8C1DAD3A4ADB6BF8089929B7C754D
:100B90006E6758514A43343D262F1019020BD7DE99
:100BA000C5CCF3FAE1E89F968D84BBB2A9A0474E6D
:100BB000555C636A71780F061D142B2239309A93A5
:100BC0008881BEB7ACA5D2DBC0C9F6FFE4ED0A034D
:100BD00018112E273C35424B5059666F747DA1A8E1
:100BE000B3BA858C979EE9E0FBF2CDC4DFD63138ED
:100BF000232A151C070E79706B625D544F46000B5B
:100C0000161D2C273A3158534E45747F6269B0BB8C
:100C1000A6AD9C978A81E8E3FEF5C4CFD2D97B705C
:100C20006D66575C414A2328353E0F041912CBC02C
:100C3000DDD6E7ECF1FA9398858EBFB4A9A2F6FD54
:100C4000E0EBDAD1CCC7AEA5B8B38289949F464D0C
:100C5000505B6A617C771E1508033239242F8D861C
:100C60009B90A1AAB7BCD5DEC3C8F9F2EFE43D362C
:100C70002B20111A070C656E737849425F54F7FCFC
:100C8000E1EADBD0CDC6AFA4B9B28388959E474CCC
:100C9000515A6B607D761F1409023338252E8C87DC
:100CA0009A91A0ABB6BDD4DFC2C9F8F3EEE53C37EC
:100CB0002A21101B060D646F727948435E55010AA4
:100CC000171C2D263B3059524F44757E6368B1BACC
:100CD000A7AC9D968B80E9E2FFF4C5CED3D87A719C
:100CE0006C67565D404B2229343F0E051813CAC16C
:100CF000DCD7E6EDF0FB9299848FBEB5A8A3000D7A
:100D00001A1734392E236865727F5C51464BD0DD4B
:100D1000CAC7E4E9FEF3B8B5A2AF8C81969BBBB617
:100D2000A1AC8F829598D3DEC9C4E7EAFDF06B666B
:100D3000717C5F524548030E1914373A2D206D60BF
:100D4000777A5954434E05081F12313C2B26BDB00B
:100D5000A7AA8984939ED5D8CFC2E1ECFBF6D6DB57
:100D6000CCC1E2EFF8F5BEB3A4A98A87909D060B2B
:100D70001C11323F28256E6374795A57404DDAD7DB
:100D8000C0CDEEE3F4F9B2BFA8A5868B9C910A070B
:100D9000101D3E332429626F7875565B4C41616C9F
:100DA0007B7655584F420904131E3D30272AB1BCAB
:100DB000ABA685889F92D9D4C3CEEDE0F7FAB7BA37
:100DC000ADA0838E9994DFD2C5C8EBE6F1FC676ACB
:100DD0007D70535E49440F0215183B36212C0C01DF
:100DE000161B3835222F64697E73505D4A47DCD16B
:100DF000C6CBE8E5F2FFB4B9AEA3808D9A97000E9A
:100E00001C123836242A707E6C624846545AE0EE32
:100E1000FCF2D8D6C4CA909E8C82A8A6B4BADBD500
:100E2000C7C9E3EDFFF1ABA5B7B9939D8F813B3502
:100E30002729030D1F114B455759737D6F61ADA3D2
:100E4000B1BF959B8987DDD3C1CFE5EBF9F74D4362
:100E5000515F757B69673D33212F050B1917767834
:100E60006A644E40525C06081A143E30222C969852
:100E70008A84AEA0B2BCE6E8FAF4DED0C2CC414F20
:100E80005D537977656B313F2D230907151BA1AFA2
:100E9000BDB39997858BD1DFCDC3E9E7F5FB9A9474
:100EA0008688A2ACBEB0EAE4F6F8D2DCCEC07A7492
:100EB0006668424C5E500A041618323C2E20ECE262
:100EC000F0FED4DAC8C69C92808EA4AAB8B60C02F2
:100ED000101E343A28267C72606E444A58563739C0
:100EE0002B250F01131D47495B557F71636DD7D9C2
:100EF000CBC5EFE1F3FDA7A9BBB59F91838D0000A2
:100F0000100F00080000002060060000C401000867
:040000050800020DE0
:00000001FF
